:100000000C9458000C9480000C9480000C94800098
:100010000C9480000C9480000C9480000C94800060
:100020000C9480000C9480000C9480000C94800050
:100030000C9480000C9480000C9480000C94800040
:100040000C943D030C9480000C940B030C94E5027B
:100050000C9480000C9480000C9480000C94800020
:100060000C9487030C9480000000000025002800F9
:100070002B00040404040404040402020202020229
:10008000030303030303010204081020408001025C
:1000900004081020010204081020000000080002DB
:1000A0000100000304070000000000000000690ACE
:1000B00011241FBECFEFD8E0DEBFCDBF12E0A0E01D
:1000C000B1E0EEE3FAE102C005900D92AC35B10764
:1000D000D9F723E0ACE5B2E001C01D92A73DB2071D
:1000E000E1F710E0C8E5D0E004C02197FE010E94CE
:1000F000120DC735D107C9F70E941D070C941D0DBD
:100100000C940000CF92DF92EF92FF920F931F9317
:10011000CF93DF936C017A018B01C0E0D0E0CE1564
:10012000DF0589F0D8016D918D01D601ED91FC912B
:100130000190F081E02DC6010995892B11F47E0113
:1001400002C02196ECCFC701DF91CF911F910F9193
:10015000FF90EF90DF90CF900895FC01538D448D78
:10016000252F30E0842F90E0821B930B541710F062
:10017000CF96089501970895FC01918D828D98176F
:1001800061F0828DDF01A80FB11D5D968C91928D7B
:100190009F5F9F73928F90E008958FEF9FEF089578
:1001A000FC01918D828D981731F0828DE80FF11D41
:1001B000858D90E008958FEF9FEF0895FC01918D5C
:1001C000228D892F90E0805C9F4F821B91098F7355
:1001D0009927089588E193E00E94DE0021E0892BB1
:1001E00009F420E0822F0895FC01848DDF01A80F1F
:1001F000B11DA35ABF4F2C91848D90E001968F734F
:100200009927848FA689B7892C93A089B1898C916D
:1002100080648C93938D848D981306C00288F38933
:10022000E02D80818F7D80830895EF92FF920F9360
:100230001F93CF93DF93EC0181E0888F9B8D8C8D92
:10024000981305C0E889F989808185FD24C0F62EC0
:100250000B8D10E00F5F1F4F0F731127E02E8C8D59
:10026000E8120CC00FB607FCFACFE889F989808143
:1002700085FFF5CFCE010E94F400F1CF8B8DFE01FA
:10028000E80FF11DE35AFF4FF0820B8FEA89FB89DB
:100290008081806207C0EE89FF896083E889F989DF
:1002A00080818064808381E090E0DF91CF911F9115
:1002B0000F91FF90EF900895CF93DF93EC01888D1D
:1002C0008823C9F0EA89FB89808185FD05C0A8895A
:1002D000B9898C9186FD0FC00FB607FCF5CF8081E0
:1002E00085FFF2CFA889B9898C9185FFEDCFCE012A
:1002F0000E94F400E7CFDF91CF91089580E090E075
:10030000892B29F00E94EA0081110C9400000895C5
:100310003FB7F8948091A8029091A902A091AA02F7
:10032000B091AB0226B5A89B05C02F3F19F00196EE
:10033000A11DB11D3FBFBA2FA92F982F8827820F6B
:10034000911DA11DB11DBC01CD0142E0660F771FBB
:10035000881F991F4A95D1F708958F929F92AF9267
:10036000BF92CF92DF92EF92FF926B017C010E94CD
:1003700088014B015C01C114D104E104F104F1F0E6
:100380000E948801DC01CB0188199909AA09BB09DF
:10039000883E9340A105B10570F321E0C21AD1084F
:1003A000E108F10888EE880E83E0981EA11CB11CBC
:1003B000C114D104E104F10419F7DDCFFF90EF90EF
:1003C000DF90CF90BF90AF909F908F90089585ED74
:1003D0008093BC008091BC0084FDFCCF1092F4029D
:1003E000089540917E02262F30E0240F311D2132E6
:1003F0003105DCF42091F4022430C9F4FC0180E0E2
:1004000090E0861758F430917E022191DC01A45AC5
:10041000BD4FA30FB11D2C930196F3CF80917E02A7
:10042000680F60937E0280E0089581E0089582E085
:1004300008950895E091AD028091AC02E81730F480
:10044000F0E0E255FD4F808190E008958FEF9FEF3F
:1004500008959091AD028091AC02981750F4E92F65
:10046000F0E0E255FD4F208130E09F5F9093AD02B8
:1004700002C02FEF3FEFC90108958091AC0290E0D8
:100480002091AD02821B91090895CF92DF92EF92E5
:10049000FF920F931F93CF93DF937C01262F972F0B
:1004A0008A0180911703882391F0C62FD72F6E0100
:1004B000C40ED51ECC15DD0571F06991D701ED9103
:1004C000FC910190F081E02DC7010995F3CF642FD5
:1004D000822F0E94F101C801DF91CF911F910F91EE
:1004E000FF90EF90DF90CF900895CF93DF931F920E
:1004F000CDB7DEB76983209117032223D1F0209175
:100500001503203240F021E030E0FC0133832283E8
:1005100080E090E015C080911603E82FF0E0EB50EA
:10052000FD4F998190838F5F80931603809315030D
:1005300005C061E0CE0101960E94F10181E090E0EA
:100540000F90DF91CF910895089580E090E0089595
:10055000CF93DF9300D0CDB7DEB799838A83FE01B6
:1005600031968FEF31E322E02E0F9191892798E0A9
:1005700087FF03C0880F832701C0880F9150C1F700
:100580002E13F3CF681303C080E090E002C082E036
:1005900090E00F900F90DF91CF91089581309105F9
:1005A00041F08230910541F0892B49F484E291E0D9
:1005B00008C08CE291E005C082E391E002C08BE3C9
:1005C00091E00C94C7040E94180D1F920F920FB671
:1005D0000F9211242F933F934F935F936F937F93C9
:1005E0008F939F93AF93BF93EF93FF9388E193E033
:1005F0000E94F400FF91EF91BF91AF919F918F9175
:100600007F916F915F914F913F912F910F900FBE0E
:100610000F901F9018951F920F920FB60F921124F2
:100620002F938F939F93EF93FF93E0912803F09183
:1006300029038081E0912E03F0912F0382FD12C0E7
:100640009081809131038F5F8F73209132038217E5
:1006500051F0E0913103F0E0E85EFC4F958F80931C
:10066000310301C08081FF91EF919F918F912F9174
:100670000F900FBE0F901F9018951F920F920FB6FC
:100680000F9211242F933F938F939F93AF93BF9318
:100690008091A4029091A502A091A602B091A70218
:1006A0003091A30223E0230F2D3720F40196A11DE2
:1006B000B11D05C026E8230F0296A11DB11D209390
:1006C000A3028093A4029093A502A093A602B093E4
:1006D000A7028091A8029091A902A091AA02B091CC
:1006E000AB020196A11DB11D8093A8029093A902AF
:1006F000A093AA02B093AB02BF91AF919F918F914B
:100700003F912F910F900FBE0F901F9018951F9241
:100710000F920FB60F9211242F933F934F935F9335
:100720006F937F938F939F93AF93BF93EF93FF93B9
:100730008091B900887F803609F49CC068F58832C2
:1007400009F45BC090F4803109F454C038F4882374
:1007500009F4F6C0883009F44DC0F6C0883109F4B8
:100760004CC0803209F45DC0EFC0803409F468C029
:1007700048F4803309F455C0883309F0E5C080930C
:10078000F202D8C0803509F44FC0883509F45DC045
:10079000883409F0D9C0D6C0883909F4C7C0A8F494
:1007A000883709F467C038F4883609F463C08037A5
:1007B00009F460C0C9C0883809F4B8C0803909F4A8
:1007C0005FC0803809F0C0C05BC0803B09F486C0C0
:1007D00038F4803A09F466C0883A09F47FC0B4C09E
:1007E000803C09F4A7C0883C09F4A4C0883B09F404
:1007F0008AC0AAC08091CF0210C09091F10280916E
:10080000F002981770F5E091F10281E08E0F80936D
:10081000F102F0E0E053FD4F80818093BB0085EC56
:1008200086C08093F2028EC0E091F10281E08E0FCB
:100830008093F1028091BB00F0E0E053FD4F808394
:100840009091F1028091F0026EC0E091F10281E09E
:100850008E0F8093F1028091BB00F0E0E053FD4FDA
:1008600080838091F30281116DC081E08093CE027C
:1008700084EA61C083E08093F4021092A202CFCF99
:100880008091A202803208F051C0E091A20281E082
:100890008E0F8093A2028091BB00F0E0EE57FD4FD7
:1008A0008083BDCF85EC8093BC001092F4028091D0
:1008B000A202803230F4E091A202F0E0EE57FD4F48
:1008C00010826091A20270E0E0918002F0918102BA
:1008D00082E892E009951092A20236C084E08093EB
:1008E000F40210927F0210927E02E0917C02F0915D
:1008F0007D02099580917E02811105C081E080937F
:100900007E0210925C02E0917F0281E08E0F809364
:100910007F02F0E0E45AFD4F80818093BB0090910C
:100920007F0280917E02981708F479CF85E8809342
:10093000BC000AC085EC8093BC001092F40204C095
:100940001092F2020E94E701FF91EF91BF91AF91E7
:100950009F918F917F916F915F914F913F912F91D7
:100960000F900FBE0F901F901895009769F0FC0133
:1009700001900020E9F73197AF01481B590BBC01EA
:1009800088E193E00C94820080E090E008950C945C
:10099000B5048F929F92AF92BF920F931F93CF9304
:1009A000DF93CDB7DEB7A1970FB6F894DEBF0FBEC9
:1009B000CDBF19A2423008F44AE08E010F5D1F4FEF
:1009C000842E912CA12CB12CA50194010E94F00C35
:1009D000E62FB901CA0101501109EA3014F4E05DB3
:1009E00001C0E95CD801EC93232B242B252B61F764
:1009F000C8010E94B504A1960FB6F894DEBF0FBEE1
:100A0000CDBFDF91CF911F910F91BF90AF909F907D
:100A10008F9008954F925F926F927F928F929F92E4
:100A2000AF92BF92CF92DF92EF92FF926B017C0167
:100A3000B42E9B01AC010E94EB0C882319F080E5D9
:100A400092E027C026013701E89477F82FEF3FEFB7
:100A50004FE75FE7C301B2010E94EB0C81110DC0AB
:100A60002FEF3FEF4FE75FE7C301B2010E94210B79
:100A700018161CF484E592E00CC02FEF3FEF4FE70F
:100A80005FE4C701B6010E94790C181684F488E56A
:100A900092E0FF90EF90DF90CF90BF90AF909F904B
:100AA0008F907F906F905F904F900C94B5042FEFD4
:100AB0003FEF4FE75FECC701B6010E94210B87FDB6
:100AC000E6CF20E030E0A901C701B6010E94210B6A
:100AD00087FF11C0E0911803F09119030190F08194
:100AE000E02D6DE288E193E009954C01F7FAF0946E
:100AF000F7F8F09402C0812C912CA12C60E070E0FA
:100B000080E09FE3AB1441F020E030E040E251E4AC
:100B10000E94260BA394F6CF9B01AC01C701B6013E
:100B20000E94B50A2B013C010E94980B6B017C01CD
:100B30000E94C70B9B01AC01C301B2010E94B40A21
:100B40002B013C014AE0C701B6010E94C9047C01A7
:100B5000E80CF91CBB2069F0E0911803F09119032F
:100B60000190F081E02D6EE288E193E00995E80EB6
:100B7000F91EDB2CDD2021F120E030E040E251E4E1
:100B8000C301B2010E947E0C2B013C010E94980B14
:100B90004B01A12CB12C4AE0C501B4010E94C9044B
:100BA000E80EF91EC501B4010E94C70B9B01AC0100
:100BB000C301B2010E94B40A2B013C01DA94DACFDE
:100BC000C701FF90EF90DF90CF90BF90AF909F90C4
:100BD0008F907F906F905F904F900895CF93DF93A9
:100BE0000E94B504EC0180E791E00E94B5048C0FEF
:100BF0009D1FDF91CF910895CF93C82F81E08093FF
:100C0000170380E78093D603109216031092150302
:100C1000A091C103B091C203ED91FC911197019095
:100C2000F081E02D692FCD0109958091C10390914C
:100C3000C203DC01ED91FC910190F081E02D6C2F5D
:100C40000995209115038091D603213208F04AC0FE
:100C50009091F4029111FCCF32E03093F40231E034
:100C60003093F3023FEF3093F2021092F10220939F
:100C7000F002A5EFB2E040ED52E0FA013E2F341B46
:100C8000321718F43D913193F9CF1092CF02209191
:100C9000CF02880F822B8093CF028091CE028130C9
:100CA00061F41092CE028091CF028093BB008091BC
:100CB000BC0083FDF8CF85EC01C085EE8093BC00BD
:100CC0008091F4028230E1F38091F2028F3F79F05B
:100CD0008091F202803241F08091F202803331F053
:100CE00094E005C091E003C092E001C093E010924F
:100CF0001603109215031092170321E030E09111B2
:100D000002C020E030E0C901CF9108959091F40233
:100D10009111FCCF91E09093F4029093F3022FEFA6
:100D20002093F2021092F102260F2093F00290938A
:100D3000CF029091CF02880F892B8093CF028091B0
:100D4000CE02813061F41092CE028091CF02809366
:100D5000BB008091BC0083FDF8CF85EC01C085EE1F
:100D60008093BC008091F4028130E1F38091F10224
:100D7000861710F46091F102A0EDB2E02EEA32E0A5
:100D8000F9018E2F821B861718F48D918193F9CF6C
:100D9000862F089587E195E30E94FC05009711F4E2
:100DA0001092CA03EBEBF3E03197F1F7089590E06E
:100DB000FC01E656FF4F2491FC01EA57FF4F3491A6
:100DC000FC01EE58FF4FE491EE23B1F1222339F1FB
:100DD000233091F038F42130A9F0223001F584B5A8
:100DE0008F7D12C0273091F02830A1F02430B9F463
:100DF000809180008F7D03C0809180008F778093E9
:100E000080000DC084B58F7784BD09C08091B0008B
:100E10008F7703C08091B0008F7D8093B000F0E0A9
:100E2000EE0FFF1FE859FF4FA591B4918FB7F894CB
:100E3000EC913E2B3C938FBF0895CF93DF931F928D
:100E4000CDB7DEB7789484B5826084BD84B5816007
:100E500084BD85B5826085BD85B5816085BD809185
:100E60006E00816080936E001092810080918100FD
:100E700082608093810080918100816080938100F5
:100E8000809180008160809380008091B1008460B7
:100E90008093B1008091B00081608093B000809118
:100EA0007A00846080937A0080917A0082608093D7
:100EB0007A0080917A00816080937A0080917A0034
:100EC000806880937A001092C100E0912803F0912D
:100ED000290382E08083E0912403F09125031082AE
:100EE000E0912603F091270380E180831092300384
:100EF000E0912C03F0912D0386E08083E0912A039A
:100F0000F0912B03808180618083E0912A03F0912E
:100F10002B03808188608083E0912A03F0912B036A
:100F2000808180688083E0912A03F0912B03808187
:100F30008F7D80838FE491E00E94EE0580E791E051
:100F40000E94B50483E791E00E94C70485EB93E01B
:100F50009093C2038093C10380E89AE1A6E0B0E0D9
:100F60008093C3039093C403A093C503B093C603B7
:100F70001092AD021092AC0210921603109215035B
:100F80001092F40281E08093F3021092CE0282E18B
:100F90000E94D70683E10E94D7068091B9008E7F18
:100FA0008093B9008091B9008D7F8093B90088E467
:100FB0008093B80085E48093BC002091C3033091F6
:100FC000C4034091C5035091C60360E074E284EF0E
:100FD00090E00E94F00CDA01C9014097A109B10923
:100FE000B695A795979587958093B8000E94CA06F5
:100FF000009709F06EC08091C1039091C203DC019B
:10100000ED91FC910084F185E02D0995892B61F02B
:101010008091C1039091C203DC01ED91FC910284A7
:10102000F385E02D0995E7CF0E94CA06009709F0E5
:1010300050C088EC9FEE0E94FC05009709F049C063
:1010400063E080E70E9486061092AD028093AC02B6
:10105000833009F040C08091C1039091C203DC014C
:10106000ED91FC910284F385E02D0995082F809184
:10107000C1039091C203DC01ED91FC910284F385E0
:10108000E02D0995182F8091C1039091C203DC01D6
:10109000ED91FC910284F385E02D0995682FF02EE7
:1010A000E12C9701212B89011093D5030093D403E0
:1010B0001092CF03C8010E94A802892B19F481E085
:1010C0008093CF030F7318700730184031F420E07D
:1010D00005C0282F04C021E001C023E090E0822F4A
:1010E0000E94CE0280E791E00E94B5048091CF0378
:1010F000882391F08FE891E00E94C70484EA91E090
:101100000E94C7046091D4037091D50380E090E001
:1011100042E00E94C90404C082EB91E00E94C7042F
:1011200087EC91E00E94EE058AEC91E00E94EE05CA
:1011300068E873E180E090E00E94AD0111E00E9458
:10114000CA06892B09F001C18091C7039091C80399
:101150000E94FC05892B09F0F8C08091C70390918B
:10116000C8038432ACE59A0769F024F48E3D9444B8
:1011700049F0EBC0883534E6930721F0823A9C476A
:1011800009F0E3C08091C1039091C203DC01ED91AD
:10119000FC910084F185E02D0995892B61F0809107
:1011A000C1039091C203DC01ED91FC910284F385AF
:1011B000E02D0995E7CF66E080E70E948606109251
:1011C000AD028093AC02863009F0BFC08091C703A6
:1011D0009091C8038432BCE59B0719F16CF48E3DF5
:1011E00034E49307F1F0803EA8E59A07D1F08A3104
:1011F000904409F0AAC015C0883524E6920709F486
:101200005BC02CF48C39904609F456C09EC08636DB
:10121000B8E79B0709F450C0823A9C4709F44CC0D8
:1012200094C08091C1039091C203DC01ED91FC91C7
:101230000284F385E02D0995E82E8091C1039091F9
:10124000C203DC01ED91FC910284F385E02D099548
:10125000D82E8091C1039091C203DC01ED91FC91E5
:101260000284F385E02D0995682F8091C103909148
:10127000C203DC01ED91FC910284F385E02D6983CA
:101280000995F82E8091C1039091C203DC01ED9184
:10129000FC910284F385E02D0995C82E8091C1034D
:1012A0009091C203DC01ED91FC910284F385E02D65
:1012B0000995082F69815CC08091C1039091C20398
:1012C000DC01ED91FC910284F385E02D0995F82E67
:1012D0008091C1039091C203DC01ED91FC910284E5
:1012E000F385E02D0995C82E8091C1039091C2032A
:1012F000DC01ED91FC910284F385E02D0995082F26
:101300008091C1039091C203DC01ED91FC910284B4
:10131000F385E02D0995E82E8091C1039091C203D9
:10132000DC01ED91FC910284F385E02D0995D82E26
:101330008091C1039091C203DC01ED91FC91028484
:10134000F385E02D0995682F13C01092CD031092FC
:10135000CE031092CF031092D1031092D0031092BB
:10136000D3031092D2031092D5031092D40328C055
:101370002D2D30E0C9019E299093D1038093D00395
:10138000D12C96013F2979013093D3032093D203C6
:101390001092CD031092CE030E94A802892B11F463
:1013A0001093CD03602FC7010E94A802892B11F46E
:1013B0001093CE031093CA0388E990EB0E94FC05BA
:1013C0008091CB039091CC03892B09F06BC08EEFF9
:1013D00091E00E94C7046091D0037091D10380E036
:1013E00090E00E94C70B20E03FEF4FE757E40E94D8
:1013F000260B20E030E048EC52E40E947E0C42E0F4
:101400000E940A0584E092E00E94C7048091CD0307
:10141000882319F082E192E002C087E192E00E9405
:10142000C7048CE192E00E94C7046091D2037091DE
:10143000D30380E090E00E94C70B20E03FEF4FE72E
:1014400057E40E94260B20E030E04FE253E40E9474
:101450007E0C20E030E044E352E40E94B40A26E629
:1014600036E646EE5FE30E947E0C20E030E040E08E
:1014700052E40E94B50A42E00E940A0584E292E02A
:101480000E94C7048091CE03882319F082E192E084
:1014900002C087E192E00E94C70487E392E00E94C5
:1014A000EE050EC089E392E00E94C7048091CB0351
:1014B0009091CC030E94CE0280E791E00E94B50497
:1014C0006EEB70E080E090E00E94AD010E947E0132
:1014D00036CEE8E1F3E01382128288EE93E0A0E0DA
:1014E000B0E084839583A683B78324E031E0318321
:1014F000208325EC30E03587248724EC30E03787E3
:10150000268720EC30E0318B208B21EC30E0338BD0
:10151000228B22EC30E0358B248B26EC30E0378BAD
:10152000268B118E128E138E148EE5EBF3E0138250
:10153000128284839583A683B78386E191E09183A9
:101540008083E1ECF3E084E29CE59783868381E08D
:1015500080878187148615861686108A1786128AD8
:10156000118A148A138A08955058BB27AA270E940B
:10157000CC0A0C943F0C0E94310C38F00E94380CBD
:1015800020F039F49F3F19F426F40C942E0C0EF43D
:10159000E095E7FB0C94280CE92F0E94500C58F3BF
:1015A000BA17620773078407950720F079F4A6F548
:1015B0000C94720C0EF4E0950B2EBA2FA02D0B019B
:1015C000B90190010C01CA01A0011124FF27591B88
:1015D00099F0593F50F4503E68F11A16F040A22F8E
:1015E000232F342F4427585FF3CF469537952795FF
:1015F000A795F0405395C9F77EF41F16BA0B620BFE
:10160000730B840BBAF09150A1F0FF0FBB1F661F44
:10161000771F881FC2F70EC0BA0F621F731F841F87
:1016200048F4879577956795B795F7959E3F08F0AD
:10163000B0CF9395880F08F09927EE0F979587956F
:1016400008950E94040C08F481E008950E943A0B6A
:101650000C943F0C0E94380C58F00E94310C40F062
:1016600029F45F3F29F00C94280C51110C94730C51
:101670000C942E0C0E94500C68F39923B1F355235F
:1016800091F3951B550BBB27AA2762177307840795
:1016900038F09F5F5F4F220F331F441FAA1FA9F32B
:1016A00035D00E2E3AF0E0E832D091505040E69519
:1016B000001CCAF72BD0FE2F29D0660F771F881F7A
:1016C000BB1F261737074807AB07B0E809F0BB0B6D
:1016D000802DBF01FF2793585F4F3AF09E3F510581
:1016E00078F00C94280C0C94730C5F3FE4F3983E54
:1016F000D4F3869577956795B795F7959F5FC9F76A
:10170000880F911D9695879597F90895E1E0660FEA
:10171000771F881FBB1F621773078407BA0720F063
:10172000621B730B840BBA0BEE1F88F7E0950895CC
:101730000E94580C88F09F5798F0B92F9927B751FD
:10174000B0F0E1F0660F771F881F991F1AF0BA9565
:10175000C9F714C0B13091F00E94720CB1E0089545
:101760000C94720C672F782F8827B85F39F0B93F37
:10177000CCF3869577956795B395D9F73EF4909518
:101780008095709561957F4F8F4F9F4F0895E89496
:1017900009C097FB3EF490958095709561957F4FB9
:1017A0008F4F9F4F9923A9F0F92F96E9BB27939567
:1017B000F695879577956795B795F111F8CFFAF477
:1017C000BB0F11F460FF1BC06F5F7F4F8F4F9F4FA8
:1017D00016C0882311F096E911C0772321F09EE806
:1017E000872F762F05C0662371F096E8862F70E06C
:1017F00060E02AF09A95660F771F881FDAF7880F46
:101800009695879597F90895990F0008550FAA0B9B
:10181000E0E8FEEF16161706E807F907C0F0121603
:101820001306E407F50798F0621B730B840B950B06
:1018300039F40A2661F0232B242B252B21F408955B
:101840000A2609F4A140A6958FEF811D811D0895F8
:1018500097F99F6780E870E060E008959FEF80EC63
:10186000089500240A941616170618060906089506
:1018700000240A9412161306140605060895092E6C
:101880000394000C11F4882352F0BB0F40F4BF2BDB
:1018900011F460FF04C06F5F7F4F8F4F9F4F08951B
:1018A00057FD9058440F551F59F05F3F71F0479511
:1018B000880F97FB991F61F09F3F79F087950895F6
:1018C000121613061406551FF2CF4695F1DF08C015
:1018D000161617061806991FF1CF86957105610532
:1018E00008940895E894BB2766277727CB0197F9DA
:1018F00008950E94040C08F48FEF08950E94910C43
:101900000C943F0C0E94310C38F00E94380C20F0EF
:10191000952311F00C94280C0C942E0C11240C948B
:10192000730C0E94500C70F3959FC1F3950F50E01B
:10193000551F629FF001729FBB27F00DB11D639F81
:10194000AA27F00DB11DAA1F649F6627B00DA11D27
:10195000661F829F2227B00DA11D621F739FB00DCD
:10196000A11D621F839FA00D611D221F749F33273D
:10197000A00D611D231F849F600D211D822F762FD6
:101980006A2F11249F5750409AF0F1F088234AF0B3
:10199000EE0FFF1FBB1F661F771F881F915050401F
:1019A000A9F79E3F510580F00C94280C0C94730C01
:1019B0005F3FE4F3983ED4F3869577956795B795A6
:1019C000F795E7959F5FC1F7FE2B880F911D9695C0
:1019D000879597F908950E94040C880B990B089538
:1019E000A1E21A2EAA1BBB1BFD010DC0AA1FBB1F23
:1019F000EE1FFF1FA217B307E407F50720F0A21B95
:101A0000B30BE40BF50B661F771F881F991F1A9401
:101A100069F760957095809590959B01AC01BD012B
:101A2000CF010895EE0FFF1F0590F491E02D09946A
:0E1A300081E090E0F8940C941D0DF894FFCF27
:101A3E000000000015018200AD005C01DE00BC005C
:101A4E00D0000000000075024502A50219023D02F9
:101A5E0029021A024E6F6D696E616C004572726FCB
:101A6E007200435243204661696C00556E6B6E6F77
:101A7E00776E2072657475726E20636F64650053A5
:101A8E0048544333204578616D706C652031202DAC
:101A9E002042617369632052656164696E677300E9
:101AAE000D0A00426567696E6E696E672073656E1A
:101ABE00736F722E20526573756C74203D20004931
:101ACE00442050617373656420436865636B73755E
:101ADE006D2E20004465766963652049443A2030B6
:101AEE006200494420436865636B73756D204661DF
:101AFE00696C65642E20000A0A0057616974696E6C
:101B0E006720666F722035207365636F6E64732075
:101B1E00736F20796F752063616E2072656164202A
:101B2E007468697320696E666F205E5E5E0052484F
:101B3E00203D2000252028636865636B73756D3A20
:101B4E00200070617373006661696C00292C20544B
:101B5E00203D200020646567204620286368656369
:101B6E006B73756D3A2000290055706461746520A1
:101B7E006661696C65642C206572726F723A200022
:0C1B8E006E616E00696E66006F76660086
:107E0000112484B714BE81FFF0D085E080938100F7
:107E100082E08093C00088E18093C10086E0809377
:107E2000C20080E18093C4008EE0C9D0259A86E02C
:107E300020E33CEF91E0309385002093840096BBD3
:107E4000B09BFECF1D9AA8958150A9F7CC24DD24C4
:107E500088248394B5E0AB2EA1E19A2EF3E0BF2EE7
:107E6000A2D0813461F49FD0082FAFD0023811F036
:107E7000013811F484E001C083E08DD089C08234E0
:107E800011F484E103C0853419F485E0A6D080C0E4
:107E9000853579F488D0E82EFF2485D0082F10E0AE
:107EA000102F00270E291F29000F111F8ED06801E7
:107EB0006FC0863521F484E090D080E0DECF843638
:107EC00009F040C070D06FD0082F6DD080E0C81688
:107ED00080E7D80618F4F601B7BEE895C0E0D1E017
:107EE00062D089930C17E1F7F0E0CF16F0E7DF06D8
:107EF00018F0F601B7BEE89568D007B600FCFDCFD4
:107F0000A601A0E0B1E02C9130E011968C91119780
:107F100090E0982F8827822B932B1296FA010C0160
:107F200087BEE89511244E5F5F4FF1E0A038BF0790
:107F300051F7F601A7BEE89507B600FCFDCF97BE46
:107F4000E89526C08437B1F42ED02DD0F82E2BD052
:107F50003CD0F601EF2C8F010F5F1F4F84911BD097
:107F6000EA94F801C1F70894C11CD11CFA94CF0C13
:107F7000D11C0EC0853739F428D08EE10CD085E9AC
:107F80000AD08FE07ACF813511F488E018D01DD067
:107F900080E101D065CF982F8091C00085FFFCCF94
:107FA0009093C60008958091C00087FFFCCF809118
:107FB000C00084FD01C0A8958091C6000895E0E648
:107FC000F0E098E1908380830895EDDF803219F02E
:107FD00088E0F5DFFFCF84E1DECF1F93182FE3DFCA
:107FE0001150E9F7F2DF1F91089580E0E8DFEE27F6
:047FF000FF270994CA
:027FFE00040479
:0400000300007E007B
:00000001FF
