:100000000C9458000C9480000C9480000C94800098
:100010000C9480000C9480000C9480000C94800060
:100020000C9480000C9480000C9480000C94800050
:100030000C9480000C9480000C9480000C94800040
:100040000C9403030C9480000C94D1020C94AB022A
:100050000C9480000C9480000C9480000C94800020
:100060000C944D030C948000000000002500280033
:100070002B00040404040404040402020202020229
:10008000030303030303010204081020408001025C
:1000900004081020010204081020000000080002DB
:1000A0000100000304070000000000000000200A17
:1000B00011241FBECFEFD8E0DEBFCDBF11E0A0E01E
:1000C000B1E0E6EAF9E102C005900D92AC3EB1075D
:1000D000D9F723E0ACEEB1E001C01D92A336B20720
:1000E000E1F710E0C8E5D0E004C02197FE010E94CE
:1000F000C60CC735D107C9F70E94F5060C94D10C80
:100100000C940000CF92DF92EF92FF920F931F9317
:10011000CF93DF936C017A018B01C0E0D0E0CE1564
:10012000DF0589F0D8016D918D01D601ED91FC912B
:100130000190F081E02DC6010995892B11F47E0113
:1001400002C02196ECCFC701DF91CF911F910F9193
:10015000FF90EF90DF90CF900895FC01538D448D78
:10016000252F30E0842F90E0821B930B541710F062
:10017000CF96089501970895FC01918D828D98176F
:1001800061F0828DDF01A80FB11D5D968C91928D7B
:100190009F5F9F73928F90E008958FEF9FEF089578
:1001A000FC01918D828D981731F0828DE80FF11D41
:1001B000858D90E008958FEF9FEF0895FC01918D5C
:1001C000228D892F90E0805C9F4F821B91098F7355
:1001D0009927089588EA92E00E94DE0021E0892BA9
:1001E00009F420E0822F0895FC01848DDF01A80F1F
:1001F000B11DA35ABF4F2C91848D90E001968F734F
:100200009927848FA689B7892C93A089B1898C916D
:1002100080648C93938D848D981306C00288F38933
:10022000E02D80818F7D80830895EF92FF920F9360
:100230001F93CF93DF93EC0181E0888F9B8D8C8D92
:10024000981305C0E889F989808185FD24C0F62EC0
:100250000B8D10E00F5F1F4F0F731127E02E8C8D59
:10026000E8120CC00FB607FCFACFE889F989808143
:1002700085FFF5CFCE010E94F400F1CF8B8DFE01FA
:10028000E80FF11DE35AFF4FF0820B8FEA89FB89DB
:100290008081806207C0EE89FF896083E889F989DF
:1002A00080818064808381E090E0DF91CF911F9115
:1002B0000F91FF90EF900895CF93DF93EC01888D1D
:1002C0008823C9F0EA89FB89808185FD05C0A8895A
:1002D000B9898C9186FD0FC00FB607FCF5CF8081E0
:1002E00085FFF2CFA889B9898C9185FFEDCFCE012A
:1002F0000E94F400E7CFDF91CF91089580E090E075
:10030000892B29F00E94EA0081110C9400000895C5
:100310003FB7F8948091380290913902A0913A0247
:10032000B0913B0226B5A89B05C02F3F19F001965E
:10033000A11DB11D3FBFBA2FA92F982F8827820F6B
:10034000911DA11DB11DBC01CD0142E0660F771FBB
:10035000881F991F4A95D1F7089585ED8093BC00B9
:100360008091BC0084FDFCCF1092840208954091DE
:100370000E02262F30E0240F311D21323105DCF42E
:10038000209184022430C9F4FC0180E090E08617BB
:1003900058F430910E022191DC01A451BE4FA30FFD
:1003A000B11D2C930196F3CF80910E02680F6093DC
:1003B0000E0280E0089581E0089582E00895089596
:1003C000E0913D0280913C02E81730F4F0E0E25CFD
:1003D000FD4F808190E008958FEF9FEF08959091F9
:1003E0003D0280913C02981750F4E92FF0E0E25C66
:1003F000FD4F208130E09F5F90933D0202C02FEFC0
:100400003FEFC901089580913C0290E020913D02A8
:10041000821B91090895CF92DF92EF92FF920F9382
:100420001F93CF93DF937C01262F972F8A01809112
:10043000A702882391F0C62FD72F6E01C40ED51EB8
:10044000CC15DD0571F06991D701ED91FC9101901A
:10045000F081E02DC7010995F3CF642F822F0E9410
:10046000B701C801DF91CF911F910F91FF90EF90DD
:10047000DF90CF900895CF93DF931F92CDB7DEB773
:1004800069832091A7022223D1F02091A502203276
:1004900040F021E030E0FC013383228380E090E0F3
:1004A00015C08091A602E82FF0E0EB57FD4F99812F
:1004B00090838F5F8093A6028093A50205C061E0C0
:1004C000CE0101960E94B70181E090E00F90DF918C
:1004D000CF910895089580E090E00895CF93DF9341
:1004E00000D0CDB7DEB799838A83FE0131968FEFB6
:1004F00031E322E02E0F9191892798E087FF03C016
:10050000880F832701C0880F9150C1F72E13F3CFB6
:10051000681303C080E090E002C082E090E00F909A
:100520000F90DF91CF9108958130910541F0823095
:10053000910541F0892B49F484E291E008C08CE2F6
:1005400091E005C082E391E002C08BE391E00C945E
:1005500098040E94CC0C1F920F920FB60F92112498
:100560002F933F934F935F936F937F938F939F93BB
:10057000AF93BF93EF93FF9388EA92E00E94F40059
:10058000FF91EF91BF91AF919F918F917F916F916B
:100590005F914F913F912F910F900FBE0F901F9041
:1005A00018951F920F920FB60F9211242F938F93CD
:1005B0009F93EF93FF93E091B802F091B90280818D
:1005C000E091BE02F091BF0282FD12C09081809145
:1005D000C1028F5F8F732091C202821751F0E091A8
:1005E000C102F0E0E855FD4F958F8093C10201C034
:1005F0008081FF91EF919F918F912F910F900FBE6E
:100600000F901F9018951F920F920FB60F92112402
:100610002F933F938F939F93AF93BF938091340217
:1006200090913502A0913602B09137023091330299
:1006300023E0230F2D3720F40196A11DB11D05C025
:1006400026E8230F0296A11DB11D2093330280934B
:10065000340290933502A0933602B0933702809112
:10066000380290913902A0913A02B0913B02019672
:10067000A11DB11D8093380290933902A0933A02D4
:10068000B0933B02BF91AF919F918F913F912F917A
:100690000F900FBE0F901F9018951F920F920FB6DC
:1006A0000F9211242F933F934F935F936F937F93F8
:1006B0008F939F93AF93BF93EF93FF938091B90074
:1006C000887F803609F49CC068F5883209F45BC0E5
:1006D00090F4803109F454C038F4882309F4F6C04A
:1006E000883009F44DC0F6C0883109F44CC080321E
:1006F00009F45DC0EFC0803409F468C048F4803369
:1007000009F455C0883309F0E5C080938202D8C04F
:10071000803509F44FC0883509F45DC0883409F08C
:10072000D9C0D6C0883909F4C7C0A8F4883709F4FD
:1007300067C038F4883609F463C0803709F460C0B4
:10074000C9C0883809F4B8C0803909F45FC080385E
:1007500009F0C0C05BC0803B09F486C038F4803A21
:1007600009F466C0883A09F47FC0B4C0803C09F43B
:10077000A7C0883C09F4A4C0883B09F48AC0AAC079
:1007800080915F0210C09091810280918002981741
:1007900070F5E091810281E08E0F80938102F0E09C
:1007A000E05AFD4F80818093BB0085EC86C080932A
:1007B00082028EC0E091810281E08E0F80938102DF
:1007C0008091BB00F0E0E05AFD4F80839091810260
:1007D000809180026EC0E091810281E08E0F809353
:1007E00081028091BB00F0E0E05AFD4F8083809150
:1007F000830281116DC081E080935E0284EA61C052
:1008000083E08093840210923202CFCF8091320233
:10081000803208F051C0E091320281E08E0F809367
:1008200032028091BB00F0E0EE5EFD4F8083BDCFD1
:1008300085EC8093BC001092840280913202803259
:1008400030F4E0913202F0E0EE5EFD4F10826091F4
:10085000320270E0E0911002F091110282E192E028
:1008600009951092320236C084E08093840210927F
:100870000F0210920E02E0910C02F0910D02099508
:1008800080910E02811105C081E080930E021092CA
:10089000EC01E0910F0281E08E0F80930F02F0E0F7
:1008A000E451FE4F80818093BB0090910F028091B4
:1008B0000E02981708F479CF85E88093BC000AC02F
:1008C00085EC8093BC001092840204C010928202D6
:1008D0000E94AD01FF91EF91BF91AF919F918F91D8
:1008E0007F916F915F914F913F912F910F900FBE2C
:1008F0000F901F901895E091A802F091A902019025
:10090000F081E02D682F88EA92E00994009769F061
:10091000FC0101900020E9F73197AF01481B590B0A
:10092000BC0188EA92E00C94820080E090E0089597
:100930000C9486048DED91E00C9486048F929F9226
:10094000AF92BF920F931F93CF93DF93CDB7DEB7D4
:10095000A1970FB6F894DEBF0FBECDBF19A24230EB
:1009600008F44AE08E010F5D1F4F842E912CA12CBC
:10097000B12CA50194010E94A40CE62FB901CA0173
:1009800001501109EA3014F4E05D01C0E95CD801BE
:10099000EC93232B242B252B61F7C8010E9486049E
:1009A000A1960FB6F894DEBF0FBECDBFDF91CF91F9
:1009B0001F910F91BF90AF909F908F900895CF930C
:1009C000C82F81E08093A70280E780936203109292
:1009D000A6021092A502A0915103B0915203ED918D
:1009E000FC9111970190F081E02D692FCD010995BF
:1009F0008091510390915203DC01ED91FC910190A3
:100A0000F081E02D6C2F09952091A5028091620361
:100A1000213208F04AC0909184029111FCCF32E05B
:100A20003093840231E0309383023FEF30938202AF
:100A30001092810220938002A5E8B2E040E652E0E5
:100A4000FA013E2F341B321718F43D913193F9CF40
:100A500010925F0220915F02880F822B80935F02C9
:100A600080915E02813061F410925E0280915F029B
:100A70008093BB008091BC0083FDF8CF85EC01C062
:100A800085EE8093BC00809184028230E1F38091F6
:100A900082028F3F79F080918202803241F0809112
:100AA0008202803331F094E005C091E003C092E00F
:100AB00001C093E01092A6021092A5021092A70224
:100AC00021E030E0911102C020E030E0C901CF9177
:100AD0000895909184029111FCCF91E0909384024B
:100AE000909383022FEF2093820210928102260FAF
:100AF0002093800290935F0290915F02880F892B70
:100B000080935F0280915E02813061F410925E02F8
:100B100080915F028093BB008091BC0083FDF8CF81
:100B200085EC01C085EE8093BC0080918402813009
:100B3000E1F380918102861710F460918102A0E6B2
:100B4000B2E02EE332E0F9018E2F821B861718F4F3
:100B50008D918193F9CF862F089590E0FC01E656A0
:100B6000FF4F2491FC01EA57FF4F3491FC01EE58EE
:100B7000FF4FE491EE23B1F1222339F1233091F0BC
:100B800038F42130A9F0223001F584B58F7D12C0F0
:100B9000273091F02830A1F02430B9F48091800002
:100BA0008F7D03C0809180008F77809380000DC07F
:100BB00084B58F7784BD09C08091B0008F7703C062
:100BC0008091B0008F7D8093B000F0E0EE0FFF1FAA
:100BD000E859FF4FA591B4918FB7F894EC913E2B53
:100BE0003C938FBF0895CF92DF92EF92FF92CF9305
:100BF000DF936C01990FEE08FF08F7FE17C08DE236
:100C00000E947B04EC0166277727CB016C197D09D4
:100C10008E099F094AE00E949E048C0F9D1FDF9160
:100C2000CF91FF90EF90DF90CF9008954AE0C701F9
:100C3000B601DF91CF91FF90EF90DF90CF900C94B1
:100C40009E044F925F926F927F928F929F92AF928B
:100C5000BF92CF92DF92EF92FF926B017C01B42E94
:100C60009B01AC010E949F0C882319F080EE91E05B
:100C700027C026013701E89477F82FEF3FEF4FE7C1
:100C80005FE7C301B2010E949F0C81110DC02FEFDD
:100C90003FEF4FE75FE7C301B2010E94D50A181684
:100CA0001CF484EE91E00CC02FEF3FEF4FE75FE4C0
:100CB000C701B6010E942D0C181684F488EE91E04D
:100CC000FF90EF90DF90CF90BF90AF909F908F906C
:100CD0007F906F905F904F900C9486042FEF3FEFC2
:100CE0004FE75FECC701B6010E94D50A87FDE6CF4A
:100CF00020E030E0A901C701B6010E94D50A87FFB4
:100D000009C08DE20E947B044C01F7FAF094F7F8D9
:100D1000F09402C0812C912CA12C60E070E080E066
:100D20009FE3AB1441F020E030E040E251E40E9448
:100D3000DA0AA394F6CF9B01AC01C701B6010E9469
:100D4000690A2B013C010E944C0B6B017C010E9443
:100D50007B0B9B01AC01C301B2010E94680A2B010D
:100D60003C014AE0C701B6010E949E047C01E80CE8
:100D7000F91CBB2029F08EE20E947B04E80EF91ECC
:100D8000DB2CDD2021F120E030E040E251E4C30122
:100D9000B2010E94320C2B013C010E944C0B4B0112
:100DA000A12CB12C4AE0C501B4010E949E04E80EBA
:100DB000F91EC501B4010E947B0B9B01AC01C3016C
:100DC000B2010E94680A2B013C01DA94DACFC70114
:100DD000FF90EF90DF90CF90BF90AF909F908F905B
:100DE0007F906F905F904F900895CF93DF931F9205
:100DF000CDB7DEB7789484B5826084BD84B5816058
:100E000084BD85B5826085BD85B5816085BD8091D5
:100E10006E00816080936E0010928100809181004D
:100E20008260809381008091810081608093810045
:100E3000809180008160809380008091B100846007
:100E40008093B1008091B00081608093B000809168
:100E50007A00846080937A0080917A008260809327
:100E60007A0080917A00816080937A0080917A0084
:100E7000806880937A001092C100E091B802F091EE
:100E8000B90282E08083E091B402F091B502108251
:100E9000E091B602F091B7028FEC80831092C0020D
:100EA000E091BC02F091BD0286E08083E091BA023D
:100EB000F091BB02808180618083E091BA02F09161
:100EC000BB02808188608083E091BA02F091BB020E
:100ED000808180688083E091BA02F091BB028081BA
:100EE0008F7D80838FE491E00E9486040E949A04A3
:100EF0000E949A048BE691E00E94980485E493E0B6
:100F0000909352038093510380E89AE1A6E0B0E009
:100F10008093530390935403A0935503B0935603C7
:100F200010923D0210923C021092A6021092A5026D
:100F30001092840281E08093830210925E0282E12B
:100F40000E94AD0583E10E94AD058091B9008E7FBE
:100F50008093B9008091B9008D7F8093B90088E4B7
:100F60008093B80085E48093BC00209153033091B6
:100F70005403409155035091560360E074E284EFAE
:100F800090E00E94A40CDA01C9014097A109B109BF
:100F9000B695A795979587958093B8008091510352
:100FA00090915203DC01ED91FC910084F185E02DDC
:100FB0000995892B61F08091510390915203DC01D6
:100FC000ED91FC910284F385E02D0995E7CF88EC43
:100FD0009FEE0E94DF040097D9F563E080E70E944E
:100FE000690510923D0280933C02833009F091C163
:100FF0008091510390915203DC01ED91FC910284A8
:10100000F385E02D0995082F8091510390915203AB
:10101000DC01ED91FC910284F385E02D0995182FF8
:101020008091510390915203DC01ED91FC91028477
:10103000F385E02D0995B02EA12CA12AB092610371
:10104000A092600310925B0388E990EB0E94DF049A
:101050000E9494020E949A0487E891E00E949804FA
:10106000609160037091610380E090E042E00E9433
:101070009E040E949A040BEB13E0FF24F39487E193
:1010800095E30E94DF044C01892B09F0A7C1C80138
:101090000197F1F780915703909158030E94DF0464
:1010A0004C01892B09F09AC1809157039091580304
:1010B0008432BCE59B0769F024F48E3D944449F0EA
:1010C00015C18835B4E69B0721F0823A9C4709F0A8
:1010D0000DC18091510390915203DC01ED91FC917F
:1010E0000084F185E02D0995892B61F080915103F1
:1010F00090915203DC01ED91FC910284F385E02D87
:101100000995E7CF66E080E70E946905B82E109246
:101110003D0280933C0288E990EB0E94DF044C0181
:10112000892B09F05BC1B6E0BB1255C18091570312
:101130009091580384322CE5920719F16CF48E3D9E
:10114000B4E49B07F1F0803E28E59207D1F08A31A4
:10115000904409F0CBC015C08835B4E69B0709F46C
:101160005BC02CF48C39904609F456C0BFC086365B
:10117000B8E79B0709F450C0823A9C4709F44CC079
:10118000B5C08091510390915203DC01ED91FC9127
:101190000284F385E02D0995982E8091510390915A
:1011A0005203DC01ED91FC910284F385E02D099559
:1011B000882E8091510390915203DC01ED91FC91B6
:1011C0000284F385E02D0995682F80915103909159
:1011D0005203DC01ED91FC910284F385E02D6983DB
:1011E0000995A82E8091510390915203DC01ED9155
:1011F000FC910284F385E02D0995782E80915103AE
:1012000090915203DC01ED91FC910284F385E02D75
:101210000995B82E698148C080915103909152037D
:10122000DC01ED91FC910284F385E02D0995A82E57
:101230008091510390915203DC01ED91FC91028465
:10124000F385E02D0995782E8091510390915203FA
:10125000DC01ED91FC910284F385E02D0995B82E17
:101260008091510390915203DC01ED91FC91028435
:10127000F385E02D0995982E8091510390915203AA
:10128000DC01ED91FC910284F385E02D0995882E17
:101290008091510390915203DC01ED91FC91028405
:1012A000F385E02D0995682F282D30E0C901992993
:1012B00090935D0380935C03872C912C9A289092E5
:1012C0005F0380925E031092590310925A030E94AA
:1012D0006E02892B11F4F09259036B2DC4010E9408
:1012E0006E02892BC9F4F0925A0316C0109259036A
:1012F00010925A0310925B0310925D0310925C03EC
:1013000010925F0310925E031092610310926003CB
:1013100062C081E090E09CCE85E991E00E94980453
:1013200060915C0370915D0380E090E00E947B0B14
:1013300020E03FEF4FE757E40E94DA0A20E030E078
:1013400048EC52E40E94320C42E00E9421068BE9F4
:1013500091E00E9498048091590390E00E94F30567
:1013600089EA91E00E94980460915E0370915F03A6
:1013700080E090E00E947B0B20E03FEF4FE757E4D6
:101380000E94DA0A20E030E04FE253E40E94320C7F
:1013900020E030E044E352E40E94680A26E636E6A4
:1013A00046EE5FE30E94320C20E030E040E052E481
:1013B0000E94690A42E00E94210681EB91E00E94AE
:1013C000980480915A0390E00E94F30584EC91E028
:1013D0000E9486040AC088248394912C86EC91E0B4
:1013E0000E949804C4010E9494020E949A040E94E0
:1013F00088012B013C0198EC892E912CA12CB12C59
:101400000E948801DC01CB0184199509A609B7095E
:10141000883E9340A105B10558F0B1E08B1A9108C0
:10142000A108B10828EE420E23E0521E611C711C77
:1014300081149104A104B10419F70E947E011FCE0A
:10144000E8EAF2E01382128288EE93E0A0E0B0E0D6
:1014500084839583A683B78324E031E0318320839E
:1014600025EC30E03587248724EC30E03787268769
:1014700020EC30E0318B208B21EC30E0338B228B61
:1014800022EC30E0358B248B26EC30E0378B268B3A
:10149000118E128E138E148EE5E4F3E01382128205
:1014A00084839583A683B78386E191E091838083CB
:1014B000E1E5F3E084E29CE597838683108611865C
:1014C00012861486138616861586108A1786089546
:1014D0005058BB27AA270E94800A0C94F30B0E9445
:1014E000E50B38F00E94EC0B20F039F49F3F19F423
:1014F00026F40C94E20B0EF4E095E7FB0C94DC0B65
:10150000E92F0E94040C58F3BA1762077307840787
:10151000950720F079F4A6F50C94260C0EF4E095CE
:101520000B2EBA2FA02D0B01B90190010C01CA019D
:10153000A0011124FF27591B99F0593F50F4503E48
:1015400068F11A16F040A22F232F342F4427585F3A
:10155000F3CF469537952795A795F0405395C9F752
:101560007EF41F16BA0B620B730B840BBAF091500A
:10157000A1F0FF0FBB1F661F771F881FC2F70EC0A9
:10158000BA0F621F731F841F48F48795779567957C
:10159000B795F7959E3F08F0B0CF9395880F08F068
:1015A0009927EE0F9795879508950E94B80B08F438
:1015B00081E008950E94EE0A0C94F30B0E94EC0B5C
:1015C00058F00E94E50B40F029F45F3F29F00C949D
:1015D000DC0B51110C94270C0C94E20B0E94040CB0
:1015E00068F39923B1F3552391F3951B550BBB2752
:1015F000AA2762177307840738F09F5F5F4F220F97
:10160000331F441FAA1FA9F335D00E2E3AF0E0E88D
:1016100032D091505040E695001CCAF72BD0FE2FD7
:1016200029D0660F771F881FBB1F2617370748076B
:10163000AB07B0E809F0BB0B802DBF01FF27935823
:101640005F4F3AF09E3F510578F00C94DC0B0C9400
:10165000270C5F3FE4F3983ED4F386957795679522
:10166000B795F7959F5FC9F7880F911D9695879558
:1016700097F90895E1E0660F771F881FBB1F621777
:1016800073078407BA0720F0621B730B840BBA0B35
:10169000EE1F88F7E09508950E940C0C88F09F5784
:1016A00098F0B92F9927B751B0F0E1F0660F771F86
:1016B000881F991F1AF0BA95C9F714C0B13091F07C
:1016C0000E94260CB1E008950C94260C672F782F09
:1016D0008827B85F39F0B93FCCF386957795679541
:1016E000B395D9F73EF490958095709561957F4FAD
:1016F0008F4F9F4F0895E89409C097FB3EF4909553
:101700008095709561957F4F8F4F9F4F9923A9F0DA
:10171000F92F96E9BB279395F69587957795679569
:10172000B795F111F8CFFAF4BB0F11F460FF1BC0AD
:101730006F5F7F4F8F4F9F4F16C0882311F096E940
:1017400011C0772321F09EE8872F762F05C06623EE
:1017500071F096E8862F70E060E02AF09A95660FA7
:10176000771F881FDAF7880F9695879597F9089560
:10177000990F0008550FAA0BE0E8FEEF16161706A2
:10178000E807F907C0F012161306E407F50798F00A
:10179000621B730B840B950B39F40A2661F0232B23
:1017A000242B252B21F408950A2609F4A140A6959F
:1017B0008FEF811D811D089597F99F6780E870E084
:1017C00060E008959FEF80EC089500240A941616B7
:1017D000170618060906089500240A94121613061F
:1017E000140605060895092E0394000C11F48823AD
:1017F00052F0BB0F40F4BF2B11F460FF04C06F5FC9
:101800007F4F8F4F9F4F089557FD9058440F551F9E
:1018100059F05F3F71F04795880F97FB991F61F072
:101820009F3F79F087950895121613061406551FE9
:10183000F2CF4695F1DF08C0161617061806991F55
:10184000F1CF86957105610508940895E894BB274A
:1018500066277727CB0197F908950E94B80B08F403
:101860008FEF08950E94450C0C94F30B0E94E50B3A
:1018700038F00E94EC0B20F0952311F00C94DC0B57
:101880000C94E20B11240C94270C0E94040C70F3AE
:10189000959FC1F3950F50E0551F629FF001729F15
:1018A000BB27F00DB11D639FAA27F00DB11DAA1F24
:1018B000649F6627B00DA11D661F829F2227B00D71
:1018C000A11D621F739FB00DA11D621F839FA00DFC
:1018D000611D221F749F3327A00D611D231F849F4C
:1018E000600D211D822F762F6A2F11249F575040A3
:1018F0009AF0F1F088234AF0EE0FFF1FBB1F661F1E
:10190000771F881F91505040A9F79E3F510580F0E6
:101910000C94DC0B0C94270C5F3FE4F3983ED4F35B
:10192000869577956795B795F795E7959F5FC1F78A
:10193000FE2B880F911D9695879597F908950E9423
:10194000B80B880B990B0895A1E21A2EAA1BBB1B9A
:10195000FD010DC0AA1FBB1FEE1FFF1FA217B3077B
:10196000E407F50720F0A21BB30BE40BF50B661F91
:10197000771F881F991F1A9469F760957095809555
:1019800090959B01AC01BD01CF010895EE0FFF1FA3
:101990000590F491E02D099481E090E0F8940C9486
:0619A000D10CF894FFCF0A
:1019A6000000000015018200AD005C01DE00BC00F5
:1019B600D000000000003B020B026B02DF010302B5
:1019C600EF01E0014E6F6D696E616C004572726FDA
:1019D6007200435243204661696C00556E6B6E6F10
:1019E600776E2072657475726E20636F646500533E
:1019F60048544333204578616D706C652039393918
:101A0600202D2054657374696E6700426567696EA0
:101A16006E696E672073656E736F722E20526573E2
:101A2600756C74203D2000446576696365204944E1
:101A36003A203062005248203D2000252028636865
:101A460065636B73756D3A2000292C2054203D2068
:101A5600002064656720462028636865636B73759C
:101A66006D3A2000290055706461746520666169CD
:101A76006C65642C206572726F723A20000D0A0044
:0C1A86006E616E00696E66006F7666008F
:00000001FF
